{
  "contractName": "MineralNFT",
  "abi": [
    {
      "inputs": [],
      "stateMutability": "nonpayable",
      "type": "constructor"
    },
    {
      "anonymous": false,
      "inputs": [
        {
          "indexed": true,
          "internalType": "address",
          "name": "owner",
          "type": "address"
        },
        {
          "indexed": true,
          "internalType": "address",
          "name": "approved",
          "type": "address"
        },
        {
          "indexed": true,
          "internalType": "uint256",
          "name": "tokenId",
          "type": "uint256"
        }
      ],
      "name": "Approval",
      "type": "event"
    },
    {
      "anonymous": false,
      "inputs": [
        {
          "indexed": true,
          "internalType": "address",
          "name": "owner",
          "type": "address"
        },
        {
          "indexed": true,
          "internalType": "address",
          "name": "operator",
          "type": "address"
        },
        {
          "indexed": false,
          "internalType": "bool",
          "name": "approved",
          "type": "bool"
        }
      ],
      "name": "ApprovalForAll",
      "type": "event"
    },
    {
      "anonymous": false,
      "inputs": [
        {
          "indexed": true,
          "internalType": "uint256",
          "name": "tokenId",
          "type": "uint256"
        },
        {
          "indexed": false,
          "internalType": "string",
          "name": "lotId",
          "type": "string"
        },
        {
          "indexed": false,
          "internalType": "string",
          "name": "ipfsHash",
          "type": "string"
        },
        {
          "indexed": false,
          "internalType": "uint256",
          "name": "timestamp",
          "type": "uint256"
        }
      ],
      "name": "CertificateUpdated",
      "type": "event"
    },
    {
      "anonymous": false,
      "inputs": [
        {
          "indexed": true,
          "internalType": "uint256",
          "name": "tokenId",
          "type": "uint256"
        },
        {
          "indexed": false,
          "internalType": "string",
          "name": "lotId",
          "type": "string"
        },
        {
          "indexed": false,
          "internalType": "string",
          "name": "status",
          "type": "string"
        },
        {
          "indexed": true,
          "internalType": "address",
          "name": "validator",
          "type": "address"
        },
        {
          "indexed": false,
          "internalType": "uint256",
          "name": "timestamp",
          "type": "uint256"
        }
      ],
      "name": "DGMRValidated",
      "type": "event"
    },
    {
      "anonymous": false,
      "inputs": [
        {
          "indexed": true,
          "internalType": "uint256",
          "name": "tokenId",
          "type": "uint256"
        },
        {
          "indexed": true,
          "internalType": "address",
          "name": "to",
          "type": "address"
        },
        {
          "indexed": false,
          "internalType": "string",
          "name": "lotId",
          "type": "string"
        },
        {
          "indexed": false,
          "internalType": "string",
          "name": "site",
          "type": "string"
        },
        {
          "indexed": false,
          "internalType": "string",
          "name": "mineralType",
          "type": "string"
        },
        {
          "indexed": false,
          "internalType": "bool",
          "name": "isAuthentic",
          "type": "bool"
        },
        {
          "indexed": false,
          "internalType": "uint256",
          "name": "confidence",
          "type": "uint256"
        }
      ],
      "name": "MineralMinted",
      "type": "event"
    },
    {
      "anonymous": false,
      "inputs": [
        {
          "indexed": true,
          "internalType": "address",
          "name": "previousOwner",
          "type": "address"
        },
        {
          "indexed": true,
          "internalType": "address",
          "name": "newOwner",
          "type": "address"
        }
      ],
      "name": "OwnershipTransferred",
      "type": "event"
    },
    {
      "anonymous": false,
      "inputs": [
        {
          "indexed": true,
          "internalType": "address",
          "name": "from",
          "type": "address"
        },
        {
          "indexed": true,
          "internalType": "address",
          "name": "to",
          "type": "address"
        },
        {
          "indexed": true,
          "internalType": "uint256",
          "name": "tokenId",
          "type": "uint256"
        }
      ],
      "name": "Transfer",
      "type": "event"
    },
    {
      "inputs": [
        {
          "internalType": "address",
          "name": "to",
          "type": "address"
        },
        {
          "internalType": "uint256",
          "name": "tokenId",
          "type": "uint256"
        }
      ],
      "name": "approve",
      "outputs": [],
      "stateMutability": "nonpayable",
      "type": "function"
    },
    {
      "inputs": [
        {
          "internalType": "address",
          "name": "owner",
          "type": "address"
        }
      ],
      "name": "balanceOf",
      "outputs": [
        {
          "internalType": "uint256",
          "name": "",
          "type": "uint256"
        }
      ],
      "stateMutability": "view",
      "type": "function",
      "constant": true
    },
    {
      "inputs": [
        {
          "internalType": "uint256",
          "name": "tokenId",
          "type": "uint256"
        }
      ],
      "name": "getApproved",
      "outputs": [
        {
          "internalType": "address",
          "name": "",
          "type": "address"
        }
      ],
      "stateMutability": "view",
      "type": "function",
      "constant": true
    },
    {
      "inputs": [
        {
          "internalType": "address",
          "name": "owner",
          "type": "address"
        },
        {
          "internalType": "address",
          "name": "operator",
          "type": "address"
        }
      ],
      "name": "isApprovedForAll",
      "outputs": [
        {
          "internalType": "bool",
          "name": "",
          "type": "bool"
        }
      ],
      "stateMutability": "view",
      "type": "function",
      "constant": true
    },
    {
      "inputs": [
        {
          "internalType": "string",
          "name": "",
          "type": "string"
        }
      ],
      "name": "lotToTokenId",
      "outputs": [
        {
          "internalType": "uint256",
          "name": "",
          "type": "uint256"
        }
      ],
      "stateMutability": "view",
      "type": "function",
      "constant": true
    },
    {
      "inputs": [
        {
          "internalType": "uint256",
          "name": "",
          "type": "uint256"
        }
      ],
      "name": "mineralData",
      "outputs": [
        {
          "internalType": "string",
          "name": "lotId",
          "type": "string"
        },
        {
          "internalType": "string",
          "name": "site",
          "type": "string"
        },
        {
          "internalType": "string",
          "name": "mineralType",
          "type": "string"
        },
        {
          "internalType": "string",
          "name": "impurityLevel",
          "type": "string"
        },
        {
          "internalType": "uint256",
          "name": "confidence",
          "type": "uint256"
        },
        {
          "internalType": "string",
          "name": "iaSignature",
          "type": "string"
        },
        {
          "internalType": "bool",
          "name": "isAuthentic",
          "type": "bool"
        },
        {
          "internalType": "string",
          "name": "certificateHash",
          "type": "string"
        },
        {
          "internalType": "string",
          "name": "ipfsHash",
          "type": "string"
        },
        {
          "internalType": "uint256",
          "name": "cuGrade",
          "type": "uint256"
        },
        {
          "internalType": "uint256",
          "name": "coGrade",
          "type": "uint256"
        },
        {
          "internalType": "uint256",
          "name": "feGrade",
          "type": "uint256"
        },
        {
          "internalType": "uint256",
          "name": "weight",
          "type": "uint256"
        },
        {
          "internalType": "uint256",
          "name": "mintedAt",
          "type": "uint256"
        },
        {
          "internalType": "address",
          "name": "mintedBy",
          "type": "address"
        },
        {
          "internalType": "bool",
          "name": "dgmrValidated",
          "type": "bool"
        },
        {
          "internalType": "string",
          "name": "dgmrStatus",
          "type": "string"
        }
      ],
      "stateMutability": "view",
      "type": "function",
      "constant": true
    },
    {
      "inputs": [],
      "name": "name",
      "outputs": [
        {
          "internalType": "string",
          "name": "",
          "type": "string"
        }
      ],
      "stateMutability": "view",
      "type": "function",
      "constant": true
    },
    {
      "inputs": [],
      "name": "owner",
      "outputs": [
        {
          "internalType": "address",
          "name": "",
          "type": "address"
        }
      ],
      "stateMutability": "view",
      "type": "function",
      "constant": true
    },
    {
      "inputs": [
        {
          "internalType": "uint256",
          "name": "tokenId",
          "type": "uint256"
        }
      ],
      "name": "ownerOf",
      "outputs": [
        {
          "internalType": "address",
          "name": "",
          "type": "address"
        }
      ],
      "stateMutability": "view",
      "type": "function",
      "constant": true
    },
    {
      "inputs": [],
      "name": "renounceOwnership",
      "outputs": [],
      "stateMutability": "nonpayable",
      "type": "function"
    },
    {
      "inputs": [
        {
          "internalType": "address",
          "name": "from",
          "type": "address"
        },
        {
          "internalType": "address",
          "name": "to",
          "type": "address"
        },
        {
          "internalType": "uint256",
          "name": "tokenId",
          "type": "uint256"
        }
      ],
      "name": "safeTransferFrom",
      "outputs": [],
      "stateMutability": "nonpayable",
      "type": "function"
    },
    {
      "inputs": [
        {
          "internalType": "address",
          "name": "from",
          "type": "address"
        },
        {
          "internalType": "address",
          "name": "to",
          "type": "address"
        },
        {
          "internalType": "uint256",
          "name": "tokenId",
          "type": "uint256"
        },
        {
          "internalType": "bytes",
          "name": "data",
          "type": "bytes"
        }
      ],
      "name": "safeTransferFrom",
      "outputs": [],
      "stateMutability": "nonpayable",
      "type": "function"
    },
    {
      "inputs": [
        {
          "internalType": "address",
          "name": "operator",
          "type": "address"
        },
        {
          "internalType": "bool",
          "name": "approved",
          "type": "bool"
        }
      ],
      "name": "setApprovalForAll",
      "outputs": [],
      "stateMutability": "nonpayable",
      "type": "function"
    },
    {
      "inputs": [],
      "name": "symbol",
      "outputs": [
        {
          "internalType": "string",
          "name": "",
          "type": "string"
        }
      ],
      "stateMutability": "view",
      "type": "function",
      "constant": true
    },
    {
      "inputs": [
        {
          "internalType": "address",
          "name": "from",
          "type": "address"
        },
        {
          "internalType": "address",
          "name": "to",
          "type": "address"
        },
        {
          "internalType": "uint256",
          "name": "tokenId",
          "type": "uint256"
        }
      ],
      "name": "transferFrom",
      "outputs": [],
      "stateMutability": "nonpayable",
      "type": "function"
    },
    {
      "inputs": [
        {
          "internalType": "address",
          "name": "newOwner",
          "type": "address"
        }
      ],
      "name": "transferOwnership",
      "outputs": [],
      "stateMutability": "nonpayable",
      "type": "function"
    },
    {
      "inputs": [
        {
          "internalType": "address",
          "name": "to",
          "type": "address"
        },
        {
          "internalType": "string",
          "name": "lotId",
          "type": "string"
        },
        {
          "internalType": "string",
          "name": "site",
          "type": "string"
        },
        {
          "internalType": "string",
          "name": "mineralType",
          "type": "string"
        },
        {
          "internalType": "string",
          "name": "impurityLevel",
          "type": "string"
        },
        {
          "internalType": "uint256",
          "name": "confidence",
          "type": "uint256"
        },
        {
          "internalType": "string",
          "name": "iaSignature",
          "type": "string"
        },
        {
          "internalType": "bool",
          "name": "isAuthentic",
          "type": "bool"
        },
        {
          "internalType": "string",
          "name": "certificateHash",
          "type": "string"
        },
        {
          "internalType": "string",
          "name": "ipfsHash",
          "type": "string"
        },
        {
          "internalType": "uint256",
          "name": "cuGrade",
          "type": "uint256"
        },
        {
          "internalType": "uint256",
          "name": "coGrade",
          "type": "uint256"
        },
        {
          "internalType": "uint256",
          "name": "feGrade",
          "type": "uint256"
        },
        {
          "internalType": "uint256",
          "name": "weight",
          "type": "uint256"
        }
      ],
      "name": "mintMineralToken",
      "outputs": [
        {
          "internalType": "uint256",
          "name": "",
          "type": "uint256"
        }
      ],
      "stateMutability": "nonpayable",
      "type": "function"
    },
    {
      "inputs": [
        {
          "internalType": "uint256",
          "name": "tokenId",
          "type": "uint256"
        },
        {
          "internalType": "string",
          "name": "status",
          "type": "string"
        },
        {
          "internalType": "address",
          "name": "validator",
          "type": "address"
        }
      ],
      "name": "validateByDGMR",
      "outputs": [],
      "stateMutability": "nonpayable",
      "type": "function"
    },
    {
      "inputs": [
        {
          "internalType": "uint256",
          "name": "tokenId",
          "type": "uint256"
        },
        {
          "internalType": "string",
          "name": "newIpfsHash",
          "type": "string"
        },
        {
          "internalType": "string",
          "name": "newCertificateHash",
          "type": "string"
        }
      ],
      "name": "updateIPFSHash",
      "outputs": [],
      "stateMutability": "nonpayable",
      "type": "function"
    },
    {
      "inputs": [
        {
          "internalType": "uint256",
          "name": "tokenId",
          "type": "uint256"
        }
      ],
      "name": "getMineralData",
      "outputs": [
        {
          "internalType": "string",
          "name": "lotId",
          "type": "string"
        },
        {
          "internalType": "string",
          "name": "site",
          "type": "string"
        },
        {
          "internalType": "string",
          "name": "mineralType",
          "type": "string"
        },
        {
          "internalType": "string",
          "name": "impurityLevel",
          "type": "string"
        },
        {
          "internalType": "uint256",
          "name": "confidence",
          "type": "uint256"
        },
        {
          "internalType": "string",
          "name": "iaSignature",
          "type": "string"
        },
        {
          "internalType": "bool",
          "name": "isAuthentic",
          "type": "bool"
        },
        {
          "internalType": "string",
          "name": "ipfsHash",
          "type": "string"
        },
        {
          "internalType": "uint256",
          "name": "cuGrade",
          "type": "uint256"
        },
        {
          "internalType": "uint256",
          "name": "coGrade",
          "type": "uint256"
        },
        {
          "internalType": "uint256",
          "name": "feGrade",
          "type": "uint256"
        },
        {
          "internalType": "uint256",
          "name": "weight",
          "type": "uint256"
        },
        {
          "internalType": "uint256",
          "name": "mintedAt",
          "type": "uint256"
        },
        {
          "internalType": "bool",
          "name": "dgmrValidated",
          "type": "bool"
        },
        {
          "internalType": "string",
          "name": "dgmrStatus",
          "type": "string"
        }
      ],
      "stateMutability": "view",
      "type": "function",
      "constant": true
    },
    {
      "inputs": [
        {
          "internalType": "string",
          "name": "lotId",
          "type": "string"
        }
      ],
      "name": "getTokenByLot",
      "outputs": [
        {
          "internalType": "uint256",
          "name": "",
          "type": "uint256"
        }
      ],
      "stateMutability": "view",
      "type": "function",
      "constant": true
    },
    {
      "inputs": [],
      "name": "totalSupply",
      "outputs": [
        {
          "internalType": "uint256",
          "name": "",
          "type": "uint256"
        }
      ],
      "stateMutability": "view",
      "type": "function",
      "constant": true
    },
    {
      "inputs": [
        {
          "internalType": "string",
          "name": "lotId",
          "type": "string"
        }
      ],
      "name": "isLotCertified",
      "outputs": [
        {
          "internalType": "bool",
          "name": "",
          "type": "bool"
        }
      ],
      "stateMutability": "view",
      "type": "function",
      "constant": true
    },
    {
      "inputs": [
        {
          "internalType": "string",
          "name": "lotId",
          "type": "string"
        }
      ],
      "name": "isLotDGMRValidated",
      "outputs": [
        {
          "internalType": "bool",
          "name": "",
          "type": "bool"
        }
      ],
      "stateMutability": "view",
      "type": "function",
      "constant": true
    },
    {
      "inputs": [
        {
          "internalType": "uint256",
          "name": "tokenId",
          "type": "uint256"
        }
      ],
      "name": "tokenURI",
      "outputs": [
        {
          "internalType": "string",
          "name": "",
          "type": "string"
        }
      ],
      "stateMutability": "view",
      "type": "function",
      "constant": true
    },
    {
      "inputs": [
        {
          "internalType": "bytes4",
          "name": "interfaceId",
          "type": "bytes4"
        }
      ],
      "name": "supportsInterface",
      "outputs": [
        {
          "internalType": "bool",
          "name": "",
          "type": "bool"
        }
      ],
      "stateMutability": "view",
      "type": "function",
      "constant": true
    }
  ],
  "bytecode": "0x60803462000359576001600160401b039060408181018381118382101762000343578152600a825260209169135a5b995c985b13919560b21b8382015281519382850185811082821117620003435783526005855264135253949360da1b84860152815181811162000343576000948554916001948584811c9416801562000338575b8385101462000324578190601f94858111620002d1575b5083908583116001146200026d57899262000261575b5050600019600383901b1c191690851b1786555b86519283116200024d5783548481811c9116801562000242575b828210146200022e57828111620001e6575b50809183116001146200017f57508495829394959262000173575b5050600019600383901b1c191690821b1790555b60078054336001600160a01b03198216811790925591519290916001600160a01b0316907f8be0079c531659141344cd1fd0a4f28419497f9722a3daafe3b4186f6b6457e09080a36131e790816200035f8239f35b0151905038806200010a565b90601f198316968487528287209287905b898210620001ce575050838596979810620001b4575b505050811b0190556200011e565b015160001960f88460031b161c19169055388080620001a6565b80878596829496860151815501950193019062000190565b8487528187208380860160051c82019284871062000224575b0160051c019085905b82811062000218575050620000ef565b88815501859062000208565b92508192620001ff565b634e487b7160e01b87526022600452602487fd5b90607f1690620000dd565b634e487b7160e01b86526041600452602486fd5b015190503880620000af565b898052848a208894509190601f1984168b5b87828210620002ba5750508411620002a0575b505050811b018655620000c3565b015160001960f88460031b161c1916905538808062000292565b8385015186558b979095019493840193016200027f565b9091508880528389208580850160051c8201928686106200031a575b918991869594930160051c01915b8281106200030b57505062000099565b8b8155859450899101620002fb565b92508192620002ed565b634e487b7160e01b88526022600452602488fd5b93607f169362000082565b634e487b7160e01b600052604160045260246000fd5b600080fdfe60a080604052600436101561001357600080fd5b60003560e01c90816301ffc9a7146123f95750806306fdde0314612356578063081812fc14612338578063095ea7b3146121be57806318160ddd146121a057806322c371451461213357806323b872dd1461217c5780634094d8341461213357806342842e0e146121005780636352211e146120d057806370a0823114612039578063715018a614611fdc5780637ed87e9614611d255780638da5cb5b14611cfc57806395d89b4114611c375780639916dba214611bf35780639c073cef14611b95578063a22cb46514611abe578063b748e88a146117bf578063b88d4fde1461173d578063c87b56dd146116c8578063d12f91c71461147c578063d8afd75f1461119d578063da86afae1461025b578063e985e9c5146102055763f2fde38b1461013d57600080fd5b34610200576020366003190112610200576101566124ac565b61015e6126c0565b6001600160a01b039081169081156101ac57600780546001600160a01b031981168417909155167f8be0079c531659141344cd1fd0a4f28419497f9722a3daafe3b4186f6b6457e0600080a3005b60405162461bcd60e51b815260206004820152602660248201527f4f776e61626c653a206e6577206f776e657220697320746865207a65726f206160448201526564647265737360d01b6064820152608490fd5b600080fd5b346102005760403660031901126102005761021e6124ac565b6102266124c2565b9060018060a01b03809116600052600560205260406000209116600052602052602060ff604060002054166040519015158152f35b34610200576101c0366003190112610200576102756124ac565b6024356001600160401b0381116102005761029490369060040161259d565b906044356001600160401b038111610200576102b490369060040161259d565b906064356001600160401b038111610200576102d490369060040161259d565b906084356001600160401b038111610200576102f490369060040161259d565b9160c4356001600160401b0381116102005761031490369060040161259d565b9360e43593841515850361020057610104356001600160401b0381116102005761034290369060040161259d565b610124356001600160401b0381116102005761036290369060040161259d565b9061036b6126c0565b6001600160a01b038616156111595788511561111a57604051602081816103988d83815193849201612464565b8101600a815203019020546110cb5760016008540197886008556104556104506040516103c4816124f4565b600081526103da6103d48d612a58565b15612c1a565b6103e66103d48d612a58565b6001600160a01b038a166000818152600360209081526040808320805460010190558f83526002909152812080546001600160a01b031916831790558d91907fddf252ad1be2c89b69c2b068fc378daa952ba7f163c4a11628f55a4df523b3ef8180a48b8a612a75565b61285e565b82511561105c576104d260206104cc61046d86612f5e565b6040519283916104bd6104b08385017f68747470733a2f2f676174657761792e70696e6174612e636c6f75642f697066815261732f60f01b602082015260220190565b9182815194859201612464565b0103601f19810183528261252a565b8a612c66565b604051936104df856124d8565b8a8552856020860152866040860152606085015260a435608085015260a084015286151560c084015260e08301526101008201526101443561012082015261016435610140820152610184356101608201526101a435610180820152426101a0820152336101c082015260006101e082015260405161055d8161250f565b600a815269454e5f415454454e544560b01b602082015261020082015285600052600960205260406000209080518051906001600160401b038211610aa95781906105a885546125f0565b601f811161100c575b50602090601f8311600114610fa057600092610f95575b50508160011b916000199060031b1c19161782555b60208101518051906001600160401b038211610aa957819061060260018601546125f0565b601f8111610f42575b50602090601f8311600114610ed057600092610ec5575b50508160011b916000199060031b1c19161760018301555b60408101518051906001600160401b038211610aa957819061065f60028601546125f0565b601f8111610e72575b50602090601f8311600114610e0057600092610df5575b50508160011b916000199060031b1c19161760028301555b60608101518051906001600160401b038211610aa95781906106bc60038601546125f0565b601f8111610da2575b50602090601f8311600114610d3057600092610d25575b50508160011b916000199060031b1c19161760038301555b6080810151600483015560a08101518051906001600160401b038211610aa957819061072360058601546125f0565b601f8111610cd2575b50602090601f8311600114610c6057600092610c55575b50508160011b916000199060031b1c19161760058301555b61077a60c08201511515600684019060ff801983541691151516179055565b60e08101518051906001600160401b038211610aa957819061079f60078601546125f0565b601f8111610c02575b50602090601f8311600114610b9057600092610b85575b50508160011b916000199060031b1c19161760078301555b6101008101518051906001600160401b038211610aa9576107fb60088501546125f0565b601f8111610b3e575b50602090601f8311600114610aca5761020093929160009183610abf575b50508160011b916000199060031b1c19161760088401555b6101208101516009840155610140810151600a840155610160810151600b840155610180810151600c8401556101a0810151600d8401556101c0810151600e840180546101e084015160ff60a01b90151560a01b166001600160a01b039093166001600160a81b03199091161791909117905501518051906001600160401b038211610aa9576108cd600f8401546125f0565b601f8111610a62575b50918795939160209995938a90601f83116001146109c2579361099293600f847fbea7d59bddccbf9039a57737490e6cbf918ad1b9bbaa4bb9ac49ff27592992d79a9895610984956109779b996000926109b7575b50508160011b916000199060031b1c1916179101555b886040518d81816109588b83815193849201612464565b8101600a8152030190205560405196879660a0885260a0880190612487565b908682038d880152612487565b908482036040860152612487565b951515606083015260a43560808301526001600160a01b0316940390a3604051908152f35b01519050388061092b565b90600f84016000528b6000209160005b601f1985168110610a48575093600f600185610984956109779b9995610992997fbea7d59bddccbf9039a57737490e6cbf918ad1b9bbaa4bb9ac49ff27592992d79e9c99601f19811610610a2f575b505050811b01910155610941565b015160001960f88460031b161c19169055388080610a21565b8183015184558c9a50600190930192918d01918d016109d2565b600f84016000526020600020601f840160051c810160208510610aa2575b601f830160051c82018110610a965750506108d6565b60008155600101610a80565b5080610a80565b634e487b7160e01b600052604160045260246000fd5b015190508b80610822565b906008850160005260206000209160005b601f1985168110610b2657509183916001936102009695601f19811610610b0d575b505050811b01600884015561083a565b015160001960f88460031b161c191690558b8080610afd565b91926020600181928685015181550194019201610adb565b600885016000526020600020601f840160051c810160208510610b7e575b601f830160051c82018110610b72575050610804565b60008155600101610b5c565b5080610b5c565b015190508a806107bf565b9250600785016000526020600020906000935b601f1984168510610be7576001945083601f19811610610bce575b505050811b0160078301556107d7565b015160001960f88460031b161c191690558a8080610bbe565b81810151835560209485019460019093019290910190610ba3565b909150600785016000526020600020601f840160051c810160208510610c4e575b90849392915b601f830160051c82018110610c3f5750506107a8565b60008155859450600101610c29565b5080610c23565b015190508a80610743565b9250600585016000526020600020906000935b601f1984168510610cb7576001945083601f19811610610c9e575b505050811b01600583015561075b565b015160001960f88460031b161c191690558a8080610c8e565b81810151835560209485019460019093019290910190610c73565b909150600585016000526020600020601f840160051c810160208510610d1e575b90849392915b601f830160051c82018110610d0f57505061072c565b60008155859450600101610cf9565b5080610cf3565b015190508a806106dc565b9250600385016000526020600020906000935b601f1984168510610d87576001945083601f19811610610d6e575b505050811b0160038301556106f4565b015160001960f88460031b161c191690558a8080610d5e565b81810151835560209485019460019093019290910190610d43565b909150600385016000526020600020601f840160051c810160208510610dee575b90849392915b601f830160051c82018110610ddf5750506106c5565b60008155859450600101610dc9565b5080610dc3565b015190508a8061067f565b9250600285016000526020600020906000935b601f1984168510610e57576001945083601f19811610610e3e575b505050811b016002830155610697565b015160001960f88460031b161c191690558a8080610e2e565b81810151835560209485019460019093019290910190610e13565b909150600285016000526020600020601f840160051c810160208510610ebe575b90849392915b601f830160051c82018110610eaf575050610668565b60008155859450600101610e99565b5080610e93565b015190508a80610622565b9250600185016000526020600020906000935b601f1984168510610f27576001945083601f19811610610f0e575b505050811b01600183015561063a565b015160001960f88460031b161c191690558a8080610efe565b81810151835560209485019460019093019290910190610ee3565b909150600185016000526020600020601f840160051c810160208510610f8e575b90849392915b601f830160051c82018110610f7f57505061060b565b60008155859450600101610f69565b5080610f63565b015190508a806105c8565b9250846000526020600020906000935b601f1984168510610ff1576001945083601f19811610610fd8575b505050811b0182556105dd565b015160001960f88460031b161c191690558a8080610fcb565b81810151835560209485019460019093019290910190610fb0565b909150846000526020600020601f840160051c810160208510611055575b90849392915b601f830160051c820181106110465750506105b1565b60008155859450600101611030565b508061102a565b6104d26110688a613117565b6110c6604260405180937f68747470733a2f2f6d696e6572616c636861696e2e63642f6170692f746f6b656020830152616e2f60f01b60408301526110b68151809260208686019101612464565b810103602281018452018261252a565b6104cc565b60405162461bcd60e51b815260206004820152602160248201527f4d696e6572616c4e46543a206c6f7420616c72656164792063657274696669656044820152601960fa1b6064820152608490fd5b60405162461bcd60e51b8152602060048201526017602482015276135a5b995c985b1391950e88195b5c1d1e481b1bdd1259604a1b6044820152606490fd5b606460405162461bcd60e51b815260206004820152602060248201527f4d696e6572616c4e46543a206d696e7420746f207a65726f20616464726573736044820152fd5b34610200576060366003190112610200576001600160401b03600435602435828111610200576111d190369060040161259d565b6044356001600160a01b0381169390849003610200576111ef6126c0565b6112006111fb84612a58565b612dfa565b8151602091828401918220600b8460405161121a8161250f565b828152016a41555448454e544951554560a81b815220148015611463575b156114045760008581526009845260409020600e8101805460ff60a01b1916600160a01b1790558451600f91909101918111610aa95761127882546125f0565b601f81116113be575b5083601f8211600114611334579181600994927fb470f92ca9368412fa51adb6cc3e359016f9cdea20302d1a01ebdb91576a5dc6979694600091611329575b508160011b916000199060031b1c19161790555b835190206112e0612e45565b8281519101201461130d575b8460005252604060002090611308604051928392429184612e68565b0390a3005b84600052818152600660406000200160ff1981541690556112ec565b90508601518a6112c0565b601f1982169083600052856000209160005b8181106113a75750927fb470f92ca9368412fa51adb6cc3e359016f9cdea20302d1a01ebdb91576a5dc69796949260019282600998961061138e575b5050811b0190556112d4565b88015160001960f88460031b161c191690558a80611382565b91928760018192868c015181550194019201611346565b8260005284600020601f830160051c8101918684106113fa575b601f0160051c01905b8181106113ee5750611281565b600081556001016113e1565b90915081906113d8565b60405162461bcd60e51b815260048101849052603160248201527f4d696e6572616c4e46543a20737461747573206d757374206265204155544845604482015270139512545551481bdc8814d554d41150d5607a1b6064820152608490fd5b5083518220611470612e45565b84815191012014611238565b34610200576020366003190112610200576004356000526009602052604060002060405190816114ac818361262a565b036114b7908361252a565b60405191826114c9816001850161262a565b036114d4908461252a565b604051928290846114e8816002850161262a565b036114f3908661252a565b6040519485611505816003860161262a565b03611510908761252a565b600483015495604051808060058701906115299161262a565b03611534908261252a565b60068501546040519060ff168161154e8160078a0161262a565b03611559908361252a565b604051928361156b8160088b0161262a565b03611576908561252a565b60098801549a600a89015495600b8a015497600c8b015499600d8c01549b600e01549c6040519e8f80600f819301906115ae9161262a565b036115b89161252a565b60405180608052610220809152608051016115d291612487565b60805180820390602001526115e691612487565b60805180820390604001526115fa91612487565b608051808203906060015261160e91612487565b90608051608001526080518082039060a0015261162a91612487565b90151560805160c001526080518082039060e0015261164891612487565b60805180820390610100015261165d91612487565b9660805161012001526080516101400152608051610160015260805161018001526080516101a00152600160a01b6001900381166080516101c0015260a01c60ff1615156080516101e00152608051808303906102000152608051916116c291612487565b03608051f35b34610200576020366003190112610200576004356116ed6116e882612a58565b612718565b600052600660205261173961170f61171660406000206040519283809261262a565b038261252a565b6000604051611724816124f4565b52604051918291602083526020830190612487565b0390f35b34610200576080366003190112610200576117566124ac565b61175e6124c2565b90606435906044356001600160401b0383116102005736602384011215610200576117bd9361179a610450943690602481600401359101612566565b926117ad6117a88433612882565b6127a9565b6117b883838361294a565b612b93565b005b34610200576060366003190112610200576004356001600160401b03602435818111610200576117f390369060040161259d565b906044358181116102005761180c90369060040161259d565b6118146126c0565b6118206111fb85612a58565b83600052602091600983526008604060002001845190828211610aa95761184781546125f0565b91601f92838111611a7b575b508086848211600114611a1757600091611a0c575b508160011b916000199060031b1c19161790555b85600052600984526007604060002001928051928311610aa9576118a084546125f0565b8281116119c9575b508491831160011461193d579180600994927f79e4a620574b61c85e8743c2a47069b0f18043028ace65cc08d727768a47eb59979694600092611932575b50508160011b916000199060031b1c19161790555b6119118161190b61046d86612f5e565b86612c66565b846000525260406000209061192d604051928392429184612e68565b0390a2005b0151905088806118e6565b90601f1983169184600052856000209260005b8181106119b257509260019285927f79e4a620574b61c85e8743c2a47069b0f18043028ace65cc08d727768a47eb599998966009989610611999575b505050811b0190556118fb565b015160001960f88460031b161c1916905588808061198c565b929387600181928786015181550195019301611950565b84600052856000208380860160051c820192888710611a03575b0160051c01905b8181106119f757506118a8565b600081556001016119ea565b925081926119e3565b905087015189611868565b60008481528881209250601f198416905b898b838310611a66575050509083600194939210611a4d575b5050811b01905561187c565b89015160001960f88460031b161c191690558980611a41565b84015185556001909401939283019201611a28565b82600052866000208480840160051c820192898510611ab5575b0160051c01905b818110611aa95750611853565b60008155600101611a9c565b92508192611a95565b3461020057604036600319011261020057611ad76124ac565b6024359081151590818303610200576001600160a01b031691338314611b5457611b269033600052600560205260406000208460005260205260406000209060ff801983541691151516179055565b6040519081527f17307eab39ab6107e8899845ad3d59bd9653f200f220920489ca2b5937696c3160203392a3005b60405162461bcd60e51b815260206004820152601960248201527822a9219b99189d1030b8383937bb32903a379031b0b63632b960391b6044820152606490fd5b34610200576020366003190112610200576004356001600160401b03811161020057611bde6020611bcb8193369060040161259d565b8160405193828580945193849201612464565b8101600a815203019020541515604051908152f35b34610200576020366003190112610200576004356001600160401b03811161020057611c2d611c28602092369060040161259d565b612e96565b6040519015158152f35b346102005760003660031901126102005760405160009060018054611c5b816125f0565b80845290828116908115611cd45750600114611c96575b61173983611c828187038261252a565b604051918291602083526020830190612487565b92508060005260209283600020916000925b828410611cc157505050810190910190611c8281611c72565b8054858501870152928501928101611ca8565b6117399550611c8293506020915091849260ff191682840152151560051b8201019350611c72565b34610200576000366003190112610200576007546040516001600160a01b039091168152602090f35b346102005760203660031901126102005760043560005260096020526040600020604051611d52816124d8565b60405180611d60818561262a565b03611d6b908261252a565b815260405180611d7e816001860161262a565b03611d89908261252a565b602082015260405180611d9f816002860161262a565b03611daa908261252a565b604082015260405180806003850190611dc29161262a565b03611dcd908261252a565b60608201526004820154608082015260405180611ded816005860161262a565b03611df8908261252a565b60a0820152600682015460ff16151560c082015260405180611e1d816007860161262a565b03611e28908261252a565b60e082015260405180611e3e816008860161262a565b03611e49908261252a565b6101008201526009820154610120820152600a820154610140820152600b820154610160820152600c820154610180820152600d8201546101a0820152600e8201546001600160a01b0381166101c083015260a01c60ff1615156101e0820152604051918290611ebd908290600f0161262a565b03611ec8908361252a565b81610200820152805191602082015191604081015160608201519160808101519260a08201519360c0830151151594610100840151610120850151966101408601519261016087015194610180880151966101a0890151986101e001511515996040519e8f9e8f916101e083526101e08301611f4391612487565b8281036020840152611f5491612487565b908082039060400152611f6691612487565b8d810360608f0152611f7791612487565b9060808d01528b810360a08d0152611f8e91612487565b9060c08b015289810360e08b0152611fa591612487565b956101008901526101208801526101408701526101608601526101808501526101a08401528281036101c084015261173991612487565b3461020057600036600319011261020057611ff56126c0565b600780546001600160a01b031981169091556000906001600160a01b03167f8be0079c531659141344cd1fd0a4f28419497f9722a3daafe3b4186f6b6457e08280a3005b34610200576020366003190112610200576001600160a01b0361205a6124ac565b1680156120795760005260036020526020604060002054604051908152f35b60405162461bcd60e51b815260206004820152602960248201527f4552433732313a2061646472657373207a65726f206973206e6f7420612076616044820152683634b21037bbb732b960b91b6064820152608490fd5b346102005760203660031901126102005760206120ee60043561275f565b6040516001600160a01b039091168152f35b34610200576117bd610450612114366125bb565b9060405192612122846124f4565b600084526117ad6117a88433612882565b34610200576020366003190112610200576004356001600160401b038111610200576121696020611bcb8193369060040161259d565b8101600a81520301902054604051908152f35b34610200576117bd61218d366125bb565b9161219b6117a88433612882565b61294a565b34610200576000366003190112610200576020600854604051908152f35b34610200576040366003190112610200576121d76124ac565b602435906001600160a01b0380806121ee8561275f565b169216918083146122e9578033149081156122c4575b501561225957600083815260046020526040902080546001600160a01b031916831790556122318361275f565b167f8c5be1e5ebec7d5bd14f71427d1e84f3dd0314c0f7b2291e5b200ac8c7c3b925600080a4005b60405162461bcd60e51b815260206004820152603d60248201527f4552433732313a20617070726f76652063616c6c6572206973206e6f7420746f60448201527f6b656e206f776e6572206f7220617070726f76656420666f7220616c6c0000006064820152608490fd5b9050600052600560205260406000203360005260205260ff6040600020541684612204565b60405162461bcd60e51b815260206004820152602160248201527f4552433732313a20617070726f76616c20746f2063757272656e74206f776e656044820152603960f91b6064820152608490fd5b346102005760203660031901126102005760206120ee600435612782565b3461020057600036600319011261020057604051600090600054612379816125f0565b808352600191808316908115611cd457506001146123a15761173983611c828187038261252a565b600080805260209450917f290decd9548b62a8d60345a988386fc84ba6bc95484008f6362f93160ef3e5635b8284106123e657505050810190910190611c8281611c72565b80548585018701529285019281016123cd565b34610200576020366003190112610200576004359063ffffffff60e01b8216809203610200576020916380ac58cd60e01b8114908115612453575b8115612442575b5015158152f35b6301ffc9a760e01b1490508361243b565b635b5e139f60e01b81149150612434565b60005b8381106124775750506000910152565b8181015183820152602001612467565b906020916124a081518092818552858086019101612464565b601f01601f1916010190565b600435906001600160a01b038216820361020057565b602435906001600160a01b038216820361020057565b61022081019081106001600160401b03821117610aa957604052565b602081019081106001600160401b03821117610aa957604052565b604081019081106001600160401b03821117610aa957604052565b90601f801991011681019081106001600160401b03821117610aa957604052565b6001600160401b038111610aa957601f01601f191660200190565b9291926125728261254b565b91612580604051938461252a565b829481845281830111610200578281602093846000960137010152565b9080601f83011215610200578160206125b893359101612566565b90565b6060906003190112610200576001600160a01b0390600435828116810361020057916024359081168103610200579060443590565b90600182811c92168015612620575b602083101461260a57565b634e487b7160e01b600052602260045260246000fd5b91607f16916125ff565b906000929180549161263b836125f0565b91828252600193848116908160001461269d575060011461265d575b50505050565b90919394506000526020928360002092846000945b838610612689575050505001019038808080612657565b805485870183015294019385908201612672565b9294505050602093945060ff191683830152151560051b01019038808080612657565b6007546001600160a01b031633036126d457565b606460405162461bcd60e51b815260206004820152602060248201527f4f776e61626c653a2063616c6c6572206973206e6f7420746865206f776e65726044820152fd5b1561271f57565b60405162461bcd60e51b8152602060048201526018602482015277115490cdcc8c4e881a5b9d985b1a59081d1bdad95b88125160421b6044820152606490fd5b6000908152600260205260409020546001600160a01b03166125b8811515612718565b61278e6116e882612a58565b6000908152600460205260409020546001600160a01b031690565b156127b057565b60405162461bcd60e51b815260206004820152602d60248201527f4552433732313a2063616c6c6572206973206e6f7420746f6b656e206f776e6560448201526c1c881bdc88185c1c1c9bdd9959609a1b6064820152608490fd5b60809060208152603260208201527f4552433732313a207472616e7366657220746f206e6f6e20455243373231526560408201527131b2b4bb32b91034b6b83632b6b2b73a32b960711b60608201520190565b1561286557565b60405162461bcd60e51b81528061287e6004820161280b565b0390fd5b906001600160a01b0380806128968461275f565b169316918383149384156128c9575b5083156128b3575b50505090565b6128bf91929350612782565b16143880806128ad565b909350600052600560205260406000208260005260205260ff6040600020541692386128a5565b156128f757565b60405162461bcd60e51b815260206004820152602560248201527f4552433732313a207472616e736665722066726f6d20696e636f72726563742060448201526437bbb732b960d91b6064820152608490fd5b90612972916129588461275f565b6001600160a01b03939184169284929091831684146128f0565b16918215612a07578161298f916129888661275f565b16146128f0565b7fddf252ad1be2c89b69c2b068fc378daa952ba7f163c4a11628f55a4df523b3ef600084815260046020526040812060018060a01b03199081815416905583825260036020526040822060001981540190558482526040822060018154019055858252600260205284604083209182541617905580a4565b60405162461bcd60e51b8152602060048201526024808201527f4552433732313a207472616e7366657220746f20746865207a65726f206164646044820152637265737360e01b6064820152608490fd5b6000908152600260205260409020546001600160a01b0316151590565b91929091803b15612b8a57612ac2936040519081630a85bd0160e11b9384825233600483015260009687602484015260448301526080606483015281878160209a8b966084830190612487565b03926001600160a01b03165af1849181612b46575b50612b35575050503d600014612b2d573d612af18161254b565b90612aff604051928361252a565b81528091833d92013e5b80519182612b2a5760405162461bcd60e51b81528061287e6004820161280b565b01fd5b506060612b09565b6001600160e01b0319161492509050565b9091508581813d8311612b83575b612b5e818361252a565b81010312612b7f57516001600160e01b031981168103612b7f579038612ad7565b8480fd5b503d612b54565b50915050600190565b92939190803b15612c1057612be5946040518092630a85bd0160e11b9485835233600484015260018060a01b03809816602484015260448301526080606483015281806020998a956084830190612487565b03916000988991165af1849181612b465750612b35575050503d600014612b2d573d612af18161254b565b5050915050600190565b15612c2157565b60405162461bcd60e51b815260206004820152601c60248201527f4552433732313a20746f6b656e20616c7265616479206d696e746564000000006044820152606490fd5b919091612c7281612a58565b15612d9e5760009081526020926006845260408220918151916001600160401b038311612d8a57612ca384546125f0565b601f8111612d47575b508591601f8411600114612ce657839495965092612cdb575b50508160011b916000199060031b1c1916179055565b015190503880612cc5565b9190601f1984169685845280842093905b888210612d2f57505083600195969710612d16575b505050811b019055565b015160001960f88460031b161c19169055388080612d0c565b80600185968294968601518155019501930190612cf7565b848352868320601f850160051c810191888610612d80575b601f0160051c01905b818110612d755750612cac565b838155600101612d68565b9091508190612d5f565b634e487b7160e01b82526041600452602482fd5b60405162461bcd60e51b815260206004820152602e60248201527f45524337323155524953746f726167653a2055524920736574206f66206e6f6e60448201526d32bc34b9ba32b73a103a37b5b2b760911b6064820152608490fd5b15612e0157565b606460405162461bcd60e51b815260206004820152602060248201527f4d696e6572616c4e46543a20746f6b656e20646f6573206e6f742065786973746044820152fd5b60405190612e528261250f565b600782526614d554d41150d560ca1b6020830152565b939291612e9190612e8360409360608852606088019061262a565b908682036020880152612487565b930152565b6020612eaf918160405193828580945193849201612464565b8101600a815203019020548015612eda57600052600960205260ff600e6040600020015460a01c1690565b50600090565b908151811015612ef1570160200190565b634e487b7160e01b600052603260045260246000fd5b90612f118261254b565b612f1e604051918261252a565b8281528092612f2f601f199161254b565b0190602036910137565b6000198114612f485760010190565b634e487b7160e01b600052601160045260246000fd5b80516007811190816130f5575b50806130d0575b806130ab575b80613086575b80613061575b8061303c575b80613017575b612f975790565b8051600619929190838101908111612f4857612fb290612f07565b9060075b8151811015613010576001600160f81b0319612fd28284612ee0565b511690858101818111612ffb57612ff0612ff69360001a9186612ee0565b53612f39565b612fb6565b60246000634e487b7160e01b81526011600452fd5b5090925050565b50805160061015612ef15760268101516001600160f81b031916602f60f81b14612f90565b50805160051015612ef15760258101516001600160f81b031916602f60f81b14612f8a565b50805160041015612ef15760248101516001600160f81b031916601d60f91b14612f84565b50805160031015612ef15760238101516001600160f81b031916607360f81b14612f7e565b50805160021015612ef15760228101516001600160f81b031916603360f91b14612f78565b50805160011015612ef15760218101516001600160f81b031916600760fc1b14612f72565b905015612ef15760208101516001600160f81b031916606960f81b1438612f6b565b80156131935780600081805b61317b575061313181612f07565b925b61313c57505090565b8015612f48576000190190600a9060308282068101809111612f485760f81b6001600160f81b03191660001a6131728486612ee0565b53049081613133565b9150613188600a91612f39565b910480839291613123565b506040516131a08161250f565b60018152600360fc1b60208201529056fea2646970667358221220cd29b0ee1bfda9cae540608230322c28e2c648e96b2f43d087770f3b5c9bcb1264736f6c63430008140033",
  "immutableReferences": {},
  "source": "// SPDX-License-Identifier: MIT\npragma solidity ^0.8.20;\n\n/**\n * MineralNFT — ERC-721 pour la certification minière\n * Katanga, République Démocratique du Congo\n *\n * Adresse déployée : 0xE7A51a1136968A33fE06bAc07B5794757E349Fbb\n * Owner            : 0xdb5745DeeDcF8e6e0099460bf94c96b56804EC70\n * Réseau           : Ganache (localhost:7545)\n * Nom / Symbole    : MineralNFT / MINRL\n *\n * Compatible avec :\n *   - Backend Flask  (routes/blockchain.py → real_mint_nft())\n *   - Frontend React (services/blockchain.js → mintNFTOnChain())\n *   - Truffle test   (test/test_mineral.js  → mintMineralToken())\n *\n * Signature principale :\n *   mintMineralToken(to, lotId, site, mineralType, impurityLevel,\n *                    confidence, iaSignature, isAuthentic,\n *                    certificateHash, ipfsHash,\n *                    cuGrade, coGrade, feGrade, weight)\n *\n * @openzeppelin/contracts v4.8.0\n */\n\nimport \"@openzeppelin/contracts/token/ERC721/ERC721.sol\";\nimport \"@openzeppelin/contracts/token/ERC721/extensions/ERC721URIStorage.sol\";\nimport \"@openzeppelin/contracts/access/Ownable.sol\";\nimport \"@openzeppelin/contracts/utils/Counters.sol\";\n\ncontract MineralNFT is ERC721URIStorage, Ownable {\n\n    using Counters for Counters.Counter;\n    Counters.Counter private _tokenIds;\n\n    // ─── Structure principale ──────────────────────────────────────────────\n    struct MineralData {\n        // Identification\n        string  lotId;            // ID unique du lot  (ex: \"KAMOA-2603-142\")\n        string  site;             // Site minier       (\"KAMOA\" | \"KANSOKO\" | \"KCC\")\n        string  mineralType;      // Type de minerai   (\"copper\" | \"cobalt\" | \"mixed\")\n        string  impurityLevel;    // Niveau impuretés  (\"low\" | \"medium\" | \"high\")\n\n        // Résultat IA\n        uint256 confidence;       // Score IA × 100    (ex: 9650 = 96.50%)\n        string  iaSignature;      // Hash signature IA (ex: \"0x7ccffb17ae1da04d\")\n        bool    isAuthentic;      // true = AUTHENTIQUE, false = SUSPECT\n\n        // Certification\n        string  certificateHash;  // Hash du certificat JSON\n        string  ipfsHash;         // CID IPFS           (ex: \"ipfs://QmXy...\")\n\n        // Données chimiques (× 100 pour 2 décimales)\n        uint256 cuGrade;          // Cuivre  %×100      (ex: 324 = 3.24%)\n        uint256 coGrade;          // Cobalt  %×100      (ex: 12  = 0.12%)\n        uint256 feGrade;          // Fer     %×100      (ex: 123 = 1.23%)\n        uint256 weight;           // Poids   t×100      (ex: 2530 = 25.30 t)\n\n        // Méta\n        uint256 mintedAt;         // Timestamp Unix du minting\n        address mintedBy;         // Adresse qui a appelé mintMineralToken\n        bool    dgmrValidated;    // true après validation du régulateur DGMR\n        string  dgmrStatus;       // \"AUTHENTIQUE\" | \"SUSPECT\" | \"EN_ATTENTE\"\n    }\n\n    // ─── State ─────────────────────────────────────────────────────────────\n    mapping(uint256 => MineralData) public mineralData;\n    mapping(string  => uint256)     public lotToTokenId;   // lotId → tokenId\n    mapping(uint256 => string)      private _tokenURIMap;  // tokenId → URI\n\n    // ─── Events ────────────────────────────────────────────────────────────\n    event MineralMinted(\n        uint256 indexed tokenId,\n        address indexed to,\n        string  lotId,\n        string  site,\n        string  mineralType,\n        bool    isAuthentic,\n        uint256 confidence\n    );\n\n    event DGMRValidated(\n        uint256 indexed tokenId,\n        string  lotId,\n        string  status,          // \"AUTHENTIQUE\" | \"SUSPECT\"\n        address indexed validator,\n        uint256 timestamp\n    );\n\n    event CertificateUpdated(\n        uint256 indexed tokenId,\n        string  lotId,\n        string  ipfsHash,\n        uint256 timestamp\n    );\n\n    // ─── Constructor ───────────────────────────────────────────────────────\n    constructor() ERC721(\"MineralNFT\", \"MINRL\") {}\n\n    // ═══════════════════════════════════════════════════════════════════════\n    //  FONCTION PRINCIPALE — mint d'un NFT de certification\n    // ═══════════════════════════════════════════════════════════════════════\n\n    /**\n     * @notice Mint un NFT ERC-721 pour certifier un lot minier.\n     * @dev Seul le owner (MineralChain backend) peut minter.\n     *      Un lot ne peut être certifié qu'une seule fois.\n     *\n     * @param to              Adresse du producteur (receveur du NFT)\n     * @param lotId           ID unique du lot         (\"KAMOA-2603-142\")\n     * @param site            Site d'extraction        (\"KAMOA\"|\"KANSOKO\"|\"KCC\")\n     * @param mineralType     Type de minerai          (\"copper\"|\"cobalt\"|\"mixed\")\n     * @param impurityLevel   Niveau d'impuretés IA    (\"low\"|\"medium\"|\"high\")\n     * @param confidence      Score IA × 100           (9650 = 96.50%)\n     * @param iaSignature     Signature hash IA        (\"0x7ccffb17ae1da04d\")\n     * @param isAuthentic     Résultat IA              (true = AUTHENTIQUE)\n     * @param certificateHash Hash du certificat JSON  (sha256 du JSON v2.0)\n     * @param ipfsHash        CID IPFS du certificat   (\"ipfs://QmXy...\")\n     * @param cuGrade         Teneur Cu × 100          (324 = 3.24%)\n     * @param coGrade         Teneur Co × 100          (12 = 0.12%)\n     * @param feGrade         Teneur Fe × 100          (123 = 1.23%)\n     * @param weight          Poids du lot × 100       (2530 = 25.30 t)\n     *\n     * @return tokenId Le tokenId ERC-721 créé (commence à 1)\n     */\n    function mintMineralToken(\n        address to,\n        string  memory lotId,\n        string  memory site,\n        string  memory mineralType,\n        string  memory impurityLevel,\n        uint256 confidence,\n        string  memory iaSignature,\n        bool    isAuthentic,\n        string  memory certificateHash,\n        string  memory ipfsHash,\n        uint256 cuGrade,\n        uint256 coGrade,\n        uint256 feGrade,\n        uint256 weight\n    ) external onlyOwner returns (uint256) {\n\n        require(to != address(0),           \"MineralNFT: mint to zero address\");\n        require(bytes(lotId).length > 0,    \"MineralNFT: empty lotId\");\n        require(lotToTokenId[lotId] == 0,   \"MineralNFT: lot already certified\");\n\n        // Incrémenter l'ID\n        _tokenIds.increment();\n        uint256 tokenId = _tokenIds.current();\n\n        // Mint ERC-721\n        _safeMint(to, tokenId);\n\n        // Construire le tokenURI depuis IPFS\n        string memory uri = bytes(ipfsHash).length > 0\n            ? string(abi.encodePacked(\"https://gateway.pinata.cloud/ipfs/\", _stripIpfsPrefix(ipfsHash)))\n            : string(abi.encodePacked(\"https://mineralchain.cd/api/token/\", _uint2str(tokenId)));\n\n        _setTokenURI(tokenId, uri);\n\n        // Enregistrer toutes les données on-chain\n        mineralData[tokenId] = MineralData({\n            lotId:         lotId,\n            site:          site,\n            mineralType:   mineralType,\n            impurityLevel: impurityLevel,\n            confidence:    confidence,\n            iaSignature:   iaSignature,\n            isAuthentic:   isAuthentic,\n            certificateHash: certificateHash,\n            ipfsHash:      ipfsHash,\n            cuGrade:       cuGrade,\n            coGrade:       coGrade,\n            feGrade:       feGrade,\n            weight:        weight,\n            mintedAt:      block.timestamp,\n            mintedBy:      msg.sender,\n            dgmrValidated: false,\n            dgmrStatus:    \"EN_ATTENTE\"\n        });\n\n        // Mapping lot → token\n        lotToTokenId[lotId] = tokenId;\n\n        emit MineralMinted(tokenId, to, lotId, site, mineralType, isAuthentic, confidence);\n\n        return tokenId;\n    }\n\n    // ═══════════════════════════════════════════════════════════════════════\n    //  VALIDATION DGMR — enregistrée on-chain après double analyse\n    // ═══════════════════════════════════════════════════════════════════════\n\n    /**\n     * @notice Enregistre la validation du régulateur DGMR sur la blockchain.\n     * @dev Appelé par le backend après la double analyse labo.\n     *\n     * @param tokenId   ID du token à valider\n     * @param status    \"AUTHENTIQUE\" ou \"SUSPECT\"\n     * @param validator Adresse du régulateur (wallet DGMR)\n     */\n    function validateByDGMR(\n        uint256 tokenId,\n        string  memory status,\n        address validator\n    ) external onlyOwner {\n        require(_exists(tokenId), \"MineralNFT: token does not exist\");\n        require(\n            keccak256(bytes(status)) == keccak256(bytes(\"AUTHENTIQUE\")) ||\n            keccak256(bytes(status)) == keccak256(bytes(\"SUSPECT\")),\n            \"MineralNFT: status must be AUTHENTIQUE or SUSPECT\"\n        );\n\n        mineralData[tokenId].dgmrValidated = true;\n        mineralData[tokenId].dgmrStatus    = status;\n\n        // Si SUSPECT, marquer isAuthentic comme false\n        if (keccak256(bytes(status)) == keccak256(bytes(\"SUSPECT\"))) {\n            mineralData[tokenId].isAuthentic = false;\n        }\n\n        emit DGMRValidated(tokenId, mineralData[tokenId].lotId, status, validator, block.timestamp);\n    }\n\n    /**\n     * @notice Met à jour le hash IPFS (après upload du certificat final).\n     */\n    function updateIPFSHash(\n        uint256 tokenId,\n        string  memory newIpfsHash,\n        string  memory newCertificateHash\n    ) external onlyOwner {\n        require(_exists(tokenId), \"MineralNFT: token does not exist\");\n        mineralData[tokenId].ipfsHash       = newIpfsHash;\n        mineralData[tokenId].certificateHash = newCertificateHash;\n\n        string memory uri = string(abi.encodePacked(\n            \"https://gateway.pinata.cloud/ipfs/\",\n            _stripIpfsPrefix(newIpfsHash)\n        ));\n        _setTokenURI(tokenId, uri);\n\n        emit CertificateUpdated(tokenId, mineralData[tokenId].lotId, newIpfsHash, block.timestamp);\n    }\n\n    // ═══════════════════════════════════════════════════════════════════════\n    //  LECTURE — fonctions view\n    // ═══════════════════════════════════════════════════════════════════════\n\n    /**\n     * @notice Retourne toutes les données d'un lot certifié.\n     */\n    function getMineralData(uint256 tokenId)\n        external view\n        returns (\n            string  memory lotId,\n            string  memory site,\n            string  memory mineralType,\n            string  memory impurityLevel,\n            uint256 confidence,\n            string  memory iaSignature,\n            bool    isAuthentic,\n            string  memory ipfsHash,\n            uint256 cuGrade,\n            uint256 coGrade,\n            uint256 feGrade,\n            uint256 weight,\n            uint256 mintedAt,\n            bool    dgmrValidated,\n            string  memory dgmrStatus\n        )\n    {\n        MineralData memory d = mineralData[tokenId];\n        return (\n            d.lotId, d.site, d.mineralType, d.impurityLevel,\n            d.confidence, d.iaSignature, d.isAuthentic,\n            d.ipfsHash, d.cuGrade, d.coGrade, d.feGrade, d.weight,\n            d.mintedAt, d.dgmrValidated, d.dgmrStatus\n        );\n    }\n\n    /**\n     * @notice Retourne le tokenId associé à un lotId (0 si non certifié).\n     */\n    function getTokenByLot(string memory lotId) external view returns (uint256) {\n        return lotToTokenId[lotId];\n    }\n\n    /**\n     * @notice Nombre total de NFTs mintés.\n     */\n    function totalSupply() external view returns (uint256) {\n        return _tokenIds.current();\n    }\n\n    /**\n     * @notice Vérifie si un lot est certifié.\n     */\n    function isLotCertified(string memory lotId) external view returns (bool) {\n        return lotToTokenId[lotId] != 0;\n    }\n\n    /**\n     * @notice Vérifie si un lot est validé par le régulateur DGMR.\n     */\n    function isLotDGMRValidated(string memory lotId) external view returns (bool) {\n        uint256 tokenId = lotToTokenId[lotId];\n        if (tokenId == 0) return false;\n        return mineralData[tokenId].dgmrValidated;\n    }\n\n    // ─── Helpers internes ─────────────────────────────────────────────────\n\n    /// @dev Retire le préfixe \"ipfs://\" si présent\n    function _stripIpfsPrefix(string memory hash) internal pure returns (string memory) {\n        bytes memory b = bytes(hash);\n        if (b.length > 7 &&\n            b[0] == 'i' && b[1] == 'p' && b[2] == 'f' &&\n            b[3] == 's' && b[4] == ':' && b[5] == '/' && b[6] == '/') {\n            bytes memory result = new bytes(b.length - 7);\n            for (uint i = 7; i < b.length; i++) {\n                result[i - 7] = b[i];\n            }\n            return string(result);\n        }\n        return hash;\n    }\n\n    /// @dev Convertit un uint en string\n    function _uint2str(uint256 value) internal pure returns (string memory) {\n        if (value == 0) return \"0\";\n        uint256 temp = value;\n        uint256 digits;\n        while (temp != 0) { digits++; temp /= 10; }\n        bytes memory buffer = new bytes(digits);\n        while (value != 0) {\n            digits--;\n            buffer[digits] = bytes1(uint8(48 + uint256(value % 10)));\n            value /= 10;\n        }\n        return string(buffer);\n    }\n\n    // ─── Override requis par OpenZeppelin ─────────────────────────────────\n    function _burn(uint256 tokenId) internal override(ERC721URIStorage) {\n        super._burn(tokenId);\n    }\n\n    function tokenURI(uint256 tokenId)\n        public view override(ERC721URIStorage)\n        returns (string memory)\n    {\n        return super.tokenURI(tokenId);\n    }\n\n    function supportsInterface(bytes4 interfaceId)\n        public view override(ERC721)\n        returns (bool)\n    {\n        return super.supportsInterface(interfaceId);\n    }\n}\n",
  "sourcePath": "C:\\Users\\Dr_Denise\\Desktop\\Gracy\\memoire\\nft-minier\\contracts\\MineralNFT.sol",
  "compiler": {
    "name": "solc",
    "version": "0.8.20+commit.a1b79de6.Emscripten.clang"
  },
  "schemaVersion": "3.4.16",
  "updatedAt": "2026-03-21T11:20:43.296Z",
  "networkType": "ethereum",
  "devdoc": {
    "events": {
      "Approval(address,address,uint256)": {
        "details": "Emitted when `owner` enables `approved` to manage the `tokenId` token."
      },
      "ApprovalForAll(address,address,bool)": {
        "details": "Emitted when `owner` enables or disables (`approved`) `operator` to manage all of its assets."
      },
      "Transfer(address,address,uint256)": {
        "details": "Emitted when `tokenId` token is transferred from `from` to `to`."
      }
    },
    "kind": "dev",
    "methods": {
      "approve(address,uint256)": {
        "details": "See {IERC721-approve}."
      },
      "balanceOf(address)": {
        "details": "See {IERC721-balanceOf}."
      },
      "getApproved(uint256)": {
        "details": "See {IERC721-getApproved}."
      },
      "isApprovedForAll(address,address)": {
        "details": "See {IERC721-isApprovedForAll}."
      },
      "mintMineralToken(address,string,string,string,string,uint256,string,bool,string,string,uint256,uint256,uint256,uint256)": {
        "details": "Seul le owner (MineralChain backend) peut minter.      Un lot ne peut être certifié qu'une seule fois.",
        "params": {
          "certificateHash": "Hash du certificat JSON  (sha256 du JSON v2.0)",
          "coGrade": "Teneur Co × 100          (12 = 0.12%)",
          "confidence": "Score IA × 100           (9650 = 96.50%)",
          "cuGrade": "Teneur Cu × 100          (324 = 3.24%)",
          "feGrade": "Teneur Fe × 100          (123 = 1.23%)",
          "iaSignature": "Signature hash IA        (\"0x7ccffb17ae1da04d\")",
          "impurityLevel": "Niveau d'impuretés IA    (\"low\"|\"medium\"|\"high\")",
          "ipfsHash": "CID IPFS du certificat   (\"ipfs://QmXy...\")",
          "isAuthentic": "Résultat IA              (true = AUTHENTIQUE)",
          "lotId": "ID unique du lot         (\"KAMOA-2603-142\")",
          "mineralType": "Type de minerai          (\"copper\"|\"cobalt\"|\"mixed\")",
          "site": "Site d'extraction        (\"KAMOA\"|\"KANSOKO\"|\"KCC\")",
          "to": "Adresse du producteur (receveur du NFT)",
          "weight": "Poids du lot × 100       (2530 = 25.30 t)"
        },
        "returns": {
          "_0": "tokenId Le tokenId ERC-721 créé (commence à 1)"
        }
      },
      "name()": {
        "details": "See {IERC721Metadata-name}."
      },
      "owner()": {
        "details": "Returns the address of the current owner."
      },
      "ownerOf(uint256)": {
        "details": "See {IERC721-ownerOf}."
      },
      "renounceOwnership()": {
        "details": "Leaves the contract without owner. It will not be possible to call `onlyOwner` functions anymore. Can only be called by the current owner. NOTE: Renouncing ownership will leave the contract without an owner, thereby removing any functionality that is only available to the owner."
      },
      "safeTransferFrom(address,address,uint256)": {
        "details": "See {IERC721-safeTransferFrom}."
      },
      "safeTransferFrom(address,address,uint256,bytes)": {
        "details": "See {IERC721-safeTransferFrom}."
      },
      "setApprovalForAll(address,bool)": {
        "details": "See {IERC721-setApprovalForAll}."
      },
      "supportsInterface(bytes4)": {
        "details": "See {IERC165-supportsInterface}."
      },
      "symbol()": {
        "details": "See {IERC721Metadata-symbol}."
      },
      "tokenURI(uint256)": {
        "details": "See {IERC721Metadata-tokenURI}."
      },
      "transferFrom(address,address,uint256)": {
        "details": "See {IERC721-transferFrom}."
      },
      "transferOwnership(address)": {
        "details": "Transfers ownership of the contract to a new account (`newOwner`). Can only be called by the current owner."
      },
      "validateByDGMR(uint256,string,address)": {
        "details": "Appelé par le backend après la double analyse labo.",
        "params": {
          "status": "\"AUTHENTIQUE\" ou \"SUSPECT\"",
          "tokenId": "ID du token à valider",
          "validator": "Adresse du régulateur (wallet DGMR)"
        }
      }
    },
    "version": 1
  },
  "userdoc": {
    "kind": "user",
    "methods": {
      "getMineralData(uint256)": {
        "notice": "Retourne toutes les données d'un lot certifié."
      },
      "getTokenByLot(string)": {
        "notice": "Retourne le tokenId associé à un lotId (0 si non certifié)."
      },
      "isLotCertified(string)": {
        "notice": "Vérifie si un lot est certifié."
      },
      "isLotDGMRValidated(string)": {
        "notice": "Vérifie si un lot est validé par le régulateur DGMR."
      },
      "mintMineralToken(address,string,string,string,string,uint256,string,bool,string,string,uint256,uint256,uint256,uint256)": {
        "notice": "Mint un NFT ERC-721 pour certifier un lot minier."
      },
      "totalSupply()": {
        "notice": "Nombre total de NFTs mintés."
      },
      "updateIPFSHash(uint256,string,string)": {
        "notice": "Met à jour le hash IPFS (après upload du certificat final)."
      },
      "validateByDGMR(uint256,string,address)": {
        "notice": "Enregistre la validation du régulateur DGMR sur la blockchain."
      }
    },
    "version": 1
  }
}